:020000040000fa
:080000000001040000000000f3
:020000040000fa
:04000800dc01000017
:020000040000fa
:04000c00dc01000013
:020000040000fa
:04001000dc0100000f
:020000040000fa
:04001400dc0100000b
:020000040000fa
:04001800dc01000007
:020000040000fa
:04001c00dc01000003
:020000040000fa
:04002000dc010000ff
:020000040000fa
:04002400dc010000fb
:020000040000fa
:04002800dc010000f7
:020000040000fa
:04002c00dc010000f3
:020000040000fa
:04003000dc010000ef
:020000040000fa
:04003400dc010000eb
:020000040000fa
:04003800dc010000e7
:020000040000fa
:04003c00dc010000e3
:020000040000fa
:04004000dc010000df
:020000040000fa
:04004400dc010000db
:020000040000fa
:04004800dc010000d7
:020000040000fa
:04004c00dc010000d3
:020000040000fa
:04005000dc010000cf
:020000040000fa
:04005400dc010000cb
:020000040000fa
:04005800dc010000c7
:020000040000fa
:04005c00dc010000c3
:020000040000fa
:04006000dc010000bf
:020000040000fa
:04006400dc010000bb
:020000040000fa
:04006800dc010000b7
:020000040000fa
:04006c00dc010000b3
:020000040000fa
:04007000dc010000af
:020000040000fa
:04007400dc010000ab
:020000040000fa
:04007800dc010000a7
:020000040000fa
:04007c00dc010000a3
:020000040000fa
:04008000dc0100009f
:020000040000fa
:04008400dc0100009b
:020000040000fa
:04008800dc01000097
:020000040000fa
:04008c00dc01000093
:020000040000fa
:04009000dc0100008f
:020000040000fa
:04009400dc0100008b
:020000040000fa
:04009800dc01000087
:020000040000fa
:04009c00dc01000083
:020000040000fa
:0400a000dc0100007f
:020000040000fa
:0400a400dc0100007b
:020000040000fa
:0400a800dc01000077
:020000040000fa
:0400ac00dc01000073
:020000040000fa
:0400b000dc0100006f
:020000040000fa
:0400b400dc0100006b
:020000040000fa
:0400b800dc01000067
:020000040000fa
:0400bc00dc01000063
:020000040000fa
:0400c000dc0100005f
:020000040000fa
:0400c400dc0100005b
:020000040000fa
:0400c800dc01000057
:020000040000fa
:0400cc00dc01000053
:020000040000fa
:0400d000dc0100004f
:020000040000fa
:0400d400dc0100004b
:020000040000fa
:0400d800dc01000047
:020000040000fa
:04010800dc01000016
:020000040000fa
:04010c00dc01000012
:020000040000fa
:04011000dc0100000e
:020000040000fa
:04011400dc0100000a
:020000040000fa
:04011800dc01000006
:020000040000fa
:04011c00dc01000002
:020000040000fa
:04012000dc010000fe
:020000040000fa
:04012400dc010000fa
:020000040000fa
:04012800dc010000f6
:020000040000fa
:04012c00dc010000f2
:020000040000fa
:04013000dc010000ee
:020000040000fa
:04013400dc010000ea
:020000040000fa
:04013800dc010000e6
:020000040000fa
:04013c00dc010000e2
:020000040000fa
:04014000dc010000de
:020000040000fa
:04014400dc010000da
:020000040000fa
:04014800dc010000d6
:020000040000fa
:04014c00dc010000d2
:020000040000fa
:04015000dc010000ce
:020000040000fa
:04015400dc010000ca
:020000040000fa
:04015800dc010000c6
:020000040000fa
:04015c00dc010000c2
:020000040000fa
:04016000dc010000be
:020000040000fa
:04016400dc010000ba
:020000040000fa
:04016800dc010000b6
:020000040000fa
:04016c00dc010000b2
:020000040000fa
:04017000dc010000ae
:020000040000fa
:04017400dc010000aa
:020000040000fa
:04017800dc010000a6
:020000040000fa
:04017c00dc010000a2
:020000040000fa
:04018000dc0100009e
:020000040000fa
:04018400dc0100009a
:020000040000fa
:04018800dc01000096
:020000040000fa
:04018c00dc01000092
:020000040000fa
:04019000dc0100008e
:020000040000fa
:04019400dc0100008a
:020000040000fa
:04019800dc01000086
:020000040000fa
:04019c00dc01000082
:020000040000fa
:0401a000dc0100007e
:020000040000fa
:0401a400dc0100007a
:020000040000fa
:0401a800dc01000076
:020000040000fa
:0401ac00dc01000072
:020000040000fa
:0401b000dc0100006e
:020000040000fa
:0401b400dc0100006a
:020000040000fa
:0401b800dc01000066
:020000040000fa
:0401bc00dc01000062
:020000040000fa
:0401c000dc0100005e
:020000040000fa
:0401c400dc0100005a
:020000040000fa
:0401c800dc01000056
:020000040000fa
:0401cc00dc01000052
:020000040000fa
:0401d000dc0100004e
:020000040000fa
:0401d400dc0100004a
:020000040000fa
:0401d800dc01000046
:020000040000fa
:100200000f8d20000eff20000e018800000000006e
:10021000000020000000e000020032000001200089
:100220002002880014000700da0007000000e00048
:1002300003003a00005d21000100200002003700a9
:100240000000200001002000810f7000010032003a
:1002500014000700000020000000e000020032004f
:1002600000000200000000008c16020000000000e8
:100270000040da000000fe004440a900e002200037
:100280000000e0000300320000002000a001880010
:100290004440a800000006008a1f78008b1f7800e9
:1002a0000000060091018800800478000000eb0047
:1002b0001a003700e284440032a0b4009905ba0065
:1002c000e284440032a0b4009906ba00e2844400fb
:1002d00032a0b4000006eb00476fde00fd07b2005d
:1002e000636ce10003003a00ebff07000000eb0045
:1002f0000a003700606ce10004003a00005deb008a
:100300008b05e900fdff3e00040037006168e10055
:10031000010032000086eb000b00070019c7ba008d
:100320001905ba000e04e00003003a000a00e000dc
:10033000e0ff3a0000000600fe07b2009e018800c0
:100340008a047800f5ff3700395dba008b05e900b3
:100350000c003200295dba008b05e900080032006c
:100360000c00e00003003a00e284440032a0b40034
:10037000f5ff370019ddba008b05e900faff3a00f6
:100380008904e800e184440032a0b40000000600c3
:10039000000000000000000000000000000000005d
:1003a000000000000000000000000000000000004d
:1003b00000000000000000000040da000000fe0025
:1003c0000a00fa0011002000b1bf9f00c0bf9f00cb
:1003d0006a805700730707004fb897000080fa0043
:1003e000000006000a00fa00e20f500034003e0050
:1003f00060468000e10f500003003200e20f500021
:1004000011003a000c003700c32020000300e00078
:1004100001003a000040da000c02e2000200350060
:100420001422ef000de2a8000f42ab000d003a00cd
:100430000f42a8000b003700632120000300e000fa
:1004400001003a000040da001602e2000200350026
:100450001e22ef0017e2a8001942ab0001003a008b
:100460001942a800820178000b0037003102fb001e
:10047000e10f500004003a000f22ab00feff3a00eb
:1004800084108800030037001922ab00feff3a00f9
:10049000d41088008301e9000300e000f3ff3a0074
:1004a000e10f500003003a000f02ab00feff3200e4
:1004b0000b0037001902ab00feff320008003700c6
:1004c00033002000b3bf9f00c0bf9f00d1bf9f007b
:1004d000e2bf9f006a805700340707006fb997009a
:1004e000020078000080fa00000006000a00fa000e
:1004f00051002000b1bf9f00c0bf9f006a8057001d
:100500002c0707005fb897000080fa000000060083
:10051000889fbe0080047800704680000000e000e4
:1005200004003a000e0007000084eb000000e00029
:1005300008003500784680000900e0000500320020
:1005400009004400060007000000e00001003d0033
:100550000084eb00080078004f04be000000060095
:10056000800078000100e00003003a000000200055
:1005700070468800000005000080eb0002002000ab
:10058000828f500002003e00714688000000eb00a0
:1005900000000600000005000001be002200070068
:1005a0000470a70003f0a1006509b1001600320035
:1005b0000d0035006828e10006003500f0ff2f002f
:1005c000f1ff27000300e00013003b0001002800ba
:1005d0000000050000004000818048008502e9001d
:1005e000fcff3a0008003700f88f420002003c0090
:1005f0008000eb00000005008100d1000080d300e6
:100600008502e800fcff3a000300e00002003b0026
:1006100060001000e0801800000006004f89de0036
:100620008201780049003700c70ade00f107b200f6
:10063000f50fb20008003200e1cf420002003200a4
:100640000170a00024000500810f7000010032003d
:100650000408050044000500810f700002003a0004
:10066000140005008502e9000000400081c0480038
:10067000fcff3b000170a00024000500889fbe0025
:100680008a9fbe008c1f7800950007009c003300f5
:1006900003866c006450e100240032006420e10015
:1006a000270032006150e100220032006120e100a9
:1006b000210032008b854200eb07b1000134b80005
:1006c000003ab8000804420089844a00013ab800a0
:1006d0000030b8008880400009014a00040033005f
:1006e0000000400081804800020149008b05e900bc
:1006f000c909dd00830170000100320013002000f1
:10070000c814de004814dd004709de001200b20004
:10071000c808de00088470004b00070001f0a1004b
:100720000cf0a70001f0a0007e0037006120e1007e
:10073000800032000801be000200be00f7ff370053
:100740006150e100fcff3a007a003700881f780012
:10075000030478000300e00007003d006000100083
:10076000e080180060011900e081190002003b00e0
:1007700001f02d00030037000400070008f0a70077
:1007800001f0a0004f04780000000600889fbe0022
:100790008a9fbe0000827000040271000482710012
:1007a000260032000004be000200be006011b80046
:1007b0006b092000950220000182cf000a00390059
:1007c0000541b1000082cf00070039000541b100aa
:1007d0000982cf00040039000541b1000882cf0032
:1007e000010039000541b1000542520012003200fb
:1007f0000a003b0082817100610164008100d10028
:100800000080d3008984d3000884d3008b05e800de
:100810000442e800f7ff3a000700370008044400ec
:1008200089844c0000004800818048008b05e90065
:100830000442e900f9ff3a00030007004f05be003b
:100840004f04be00000006008100200061805500ba
:100850000b003d000b00200061fe2f000100e100b5
:100860001d00340082817100610164008904d1009f
:100870000884d3000000e800faff3a00710020006d
:100880006100640003007000020060000900320093
:1008900061044400e0844c000988a5000500320092
:1008a0008b05e8006808e10002003a008904d100e5
:1008b0000884d300f20f20000258e10005003d003b
:1008c000c75ddd00f907b200898075000800780077
:1008d000000006000bf827008b00780000000500e0
:1008e0000004be0050ff07000003be000405be0068
:1008f0000200be004cff0700844f75000000060098
:100900000200be006450e100050036006420e100f2
:10091000020036000968a30001003a000800be008a
:100920000160a0004f0678004f05be004f04be00d6
:1009300000000600f0ff2f00f1ff2700f9ff37004d
:10094000889fbe00800478000203be000104780086
:100950006149b800898fd2008381d20008027800f3
:100960000600be0015060700088044004f04be00c4
:1009700000000600881f7800020478000801780053
:10098000e2000700080040004f0478000000060065
:100990000000fa00881f7800000478006a8257007f
:1009a000bfb9970008017800014a2000a04b200041
:1009b000160007000000e000020035008040eb0058
:1009c000017478004f0478000080fa0000000600ef
:1009d000889fbe00000478000203be0081047800f6
:1009e0000802780089017800120020000600be008d
:1009f000b5010700890f5000010032000004eb0030
:100a0000080078004f04be00000006006800fa00ed
:100a1000889fbe008a9fbe00800478000104780091
:100a200082057800030578008400780000f92f0023
:100a30000f004000a2010700d98f9f00fb8f9f008d
:100a40000000eb00a09f9f00e88f9f009a84fb00ae
:100a50000904fb008904ea00cf4cde0050022000ac
:100a6000800f54000d003200e18f54000b003a005b
:100a7000090178008a0078007f889700df89970055
:100a800003000100f08f9f000000e000950032009d
:100a90002f9897000000e800a09f9f0009054500df
:100aa00050022000800f5400040032000800e000d3
:100ab000e6ff3a002f9897008b0037000000eb000c
:100ac000809f9f00f0979f00e0979f00d0979f0026
:100ad000c0979f00b0979f0007003700e18b200070
:100ae0000100500000004000218b200061007800d0
:100af000cf98970001007000c09f9f000a04780003
:100b000008057800ba4478008900fb00e08b2000db
:100b1000850007000000e000f0ff3a00a1c2b3002a
:100b200081cf54000e003a008f8897000180e900c1
:100b3000808f9f0010007800b09f9f000000e000b1
:100b400005003d000000ea00b09f9f004f9897000d
:100b50000020a000c09f9f000804e800100037009c
:100b6000b09f9f00880078000000eb000500370070
:100b7000f3ff2700830f5000020032006a02b90021
:100b80000400410001047800880078003101fb0076
:100b90000203b100e90f5100f5ff3600b09f9f003e
:100ba000e0c2b300984f1000020032000080eb005a
:100bb00019003700a0c2b300d84f100007003a0058
:100bc0008f8897000180e900808f9f0010007800d7
:100bd000909f9f000804e800100037000000eb0021
:100be000909f9f008800780005003700f3ff2700e2
:100bf000830f5000020032006a02b9000400410075
:100c000001047800880078003101fb000203b10084
:100c1000e90f5100f5ff3600909f9f00984478003f
:100c20008900fb00a08a20003f0007000000e000d0
:100c3000020032000804e800010037008044eb00a5
:100c4000a97f9f0080c6b30080cf540006003a0001
:100c500098cf140010003a0066405000a07f9f001b
:100c60000804e8000c003700c0c6b30080cf540071
:100c700009003a0098cf140007003a00674040008e
:100c8000d84f100002003a006e40500001003700bb
:100c900010c7b300a07f9f001801fb00c3fb2f000b
:100ca0008f81410001f92f008f80400020f92f0033
:100cb0000f004000ab0107000000e00009003a000f
:100cc000c1fb2f008f80400020f92f000f00400053
:100cd000210007000000e000020035000805e800e0
:100ce0005aff37000080eb004f05be004f04be00e6
:100cf0000080fa00000006000302780082017800fc
:100d000001017800814e200040ff3700800178000b
:100d100002003700b15978000201e9000200e0004a
:100d2000fcff3a0000000600020037000304e00068
:100d3000060032000001780002007800b04178001f
:100d400081cf5100f9ff3a00010037000001eb00ac
:100d500002007800000006000400fa00889fbe0030
:100d60008a9fbe008c1f780000047800010678007e
:100d7000a81490002808900080845400380890003f
:100d800080845400480890008084540058089000e3
:100d90008084540068089000808454007808900093
:100da000808454000002220090bf9f0000032300b3
:100db000a0bf9f00381090000028a30015003a0043
:100dc0000900e00013003400090578008a05780066
:100dd000e20f5500010036002b002000c8019000f2
:100de0000b017800ee8057006800900003000100be
:100df000600498000000e000aa0032001810900083
:100e00000b004000101498000b0555004240a9004b
:100e1000eeff3c00280990000200e0000c003400c6
:100e2000c80190008c007800680090000300010069
:100e3000600498008080eb000000e0009a0032001f
:100e4000981090002808900000804000101498002e
:100e5000380d90000a00e000110034008a05780087
:100e6000e20f5500010036002b002000c801900061
:100e70000b017800ec80570068009000030001002f
:100e8000600498000000e000860032001810900016
:100e90000b004000101498000b055500edff3700c3
:100ea00008699000c808900050c6b300804f5100f8
:100eb00008003a000100e0001500340058029000dc
:100ec0000809900098099000680090000400010053
:100ed000070037000100e0000d003400c801900059
:100ee00001017800f8009000680090000300010004
:100ef000600498008080eb000000e0006a0032008f
:100f0000981090004808900000804000101498004d
:100f1000580d90000a00e000110034008a057800a6
:100f2000e20f5500010036002b002000c8019000a0
:100f30000b017800ec80570068009000030001006e
:100f4000600498000000e000560032001810900085
:100f50000b004000101498000b055500edff370002
:100f6000086990006808900051c6b300814f510095
:100f70000d003a000000e0001c00340078019000f1
:100f8000c8089000010141006111b800828fd200b1
:100f90008381d200580290008000780068009000a1
:100fa00004000100090037000000e0000f003400d9
:100fb00078019000c808900081004100c8019000ad
:100fc00000017800680090000300010060049800b0
:100fd0008080eb000000e0003300320098109000a9
:100fe000680890000080400010149800780d900070
:100ff0000a00e000110034008a057800e20f550075
:10100000010036002b002000c80190000b01780081
:10101000ec80570068009000030001006004980015
:101020000000e0001f003200181090000b0040008c
:10103000101498000b055500edff37003810900094
:101040008000eb000028a300170032000900e00038
:101050001500340009057800e28f540001003600c5
:101060002a002000c80190000a017800ee80570095
:101070006800900003000100600498000000e00098
:1010800008003200181090000a0040001014980068
:101090008a8454004240a900eeff3c008000eb002f
:1010a000010037008080eb00010078004f067800d7
:1010b0004f05be004f04be000080fa00000006008d
:1010c0000108780000000600e6874700889fbe0000
:1010d0008a9fbe008c9fbe008e1f780082bf9f003b
:1010e00004047800029ab900f4b79f000400e000fd
:1010f000590032000fb997000200e000570032009b
:101100000006be0004077800c80090006800900048
:10111000808f50000400390008007800a301070008
:101120000000e0003b003500004020001800600097
:101130000a0032008e017800a20020000c00be00e0
:101140003b0407000005be00008075000700320068
:101150008c0455008904e800050037008e047800ef
:101160000a0020000b002000010037008e047800e8
:10117000480190006800900002005000890f500064
:1011800003003100800478000a0020000b002000da
:101190006111b800828fd2008381d20009027800e9
:1011a0000c00be0005040700090757004800900026
:1011b00009004000400498000a85750004003200d0
:1011c000080078002c0007000000e00011003a0041
:1011d0000e00e0000f0032006148b800808fd2009e
:1011e0008180d2000000780000f0a1008c01d000c6
:1011f0000001d000028641004220a80081864e00f6
:101200004200a9004220ae004200a8000c86d30094
:10121000bdff37000080200018006000020032008f
:10122000080078001400070000c0200018006000cb
:1012300002003200c8019000630498007fb097005c
:101240000e0750000fb99700110009000287d8005f
:1012500080017800010037008001eb000300780076
:101260004f0778004f06be004f05be004f04be007a
:101270006f00b10000000600889fbe0000047800e7
:101280000800e0000f003a008004eb000904780039
:101290008800d00080872000610078000000e00016
:1012a00004003200f4ff07000000e00001003d00f0
:1012b0008084eb000804e800e80f5400f4ff3a00d3
:1012c0002500370000002200180060008004eb00b9
:1012d00021003200a80490000f00370009015100de
:1012e000384090000000fb00890078003dfc0700ba
:1012f0000000e00007003c00280090004004980037
:1013000060049800500c98001890a0008084eb00b6
:10131000110037008084440048019000828f5400ff
:10132000eeff3900280090004004980098007800f3
:1013300002c020000281600001003a0038009000e5
:1013400001e8a300020032006004980001003700a9
:10135000500c98008004eb00090078004f04be0098
:1013600000000600889fbe008a9fbe00e4c6b3004e
:10137000844f5100be00320010003c006b4252000e
:10138000844f51001800320005003c0054c2b300e5
:10139000844f5100f600320084c5b3000f003700bf
:1013a00044c6b300844f510014003200654242002d
:1013b000844f5100f1003a001000370004c7b30019
:1013c000844f5100dd003200560035006542420076
:1013d000844f51005300320063424200844f510059
:1013e000e6003a004f0037001181e90082087800da
:1013f000a008900012417800de003700006a9000db
:10140000c5c6b300854f520007003a00910278002c
:1014100064825200840878001402be004fabde00e4
:10142000860378001400370015c7b300854f5200bb
:1014300003003a00110478006802540005003700e8
:10144000a5c6b300854f520006003a00910478000b
:1014500068825400840878005403be004402be0031
:10146000050037001182e900840878001402780032
:10147000cfa2de00612bb9000498be000690be002a
:101480008068900088c6b30088cf50000d003200fd
:1014900028c6b30088cf500004003a000402fb00c5
:1014a000cfa2de00612bb9000800370048c7b300a7
:1014b00088cf5000030032006644440088cf5000bb
:1014c00004003a00cfa2de00612bb9000498be00f0
:1014d0000690be003002be002003be00a0089000af
:1014e000e00f5200e08f5a00e00f5b00e08f5b00de
:1014f00002003d00d4c2b300080037003012900053
:101500000418a30002003200b4c2b3000300370085
:101510000408a3005100320004c2b30084f1780033
:101520004c003700006a9000c5c6b300854f5200da
:1015300008003a001105780064025500840878001c
:101540001404be006055b8000802be000a03be00c5
:101550001400370015c7b300854f520003003a004e
:10156000910478006882540005003700a5c6b300d6
:10157000854f520006003a001105780068025500b8
:10158000840878005403be004402be000500370002
:101590001182e90084087800140278008002eb00d0
:1015a0006033b8000498be000690be0080689000ca
:1015b00088c6b30088cf50000d00320028c6b300a3
:1015c00088cf500004003a000482fb008002eb0048
:1015d0006033b8000800370048c7b30088cf500018
:1015e000030032006644440088cf500004003a00f3
:1015f0008002eb006033b8000498be000690be0085
:10160000b01090000138a300140032003002be0078
:101610002003be00e00f5200e08f5a00e00f5b0095
:10162000e08f5b000d00320081c7b300814f510095
:101630000300320081c5b300814f510007003a001a
:10164000a008900004c3b30084f178008100e80092
:1016500082f178008100e80021089800a00890003d
:101660008181410073009800824078003e0037007d
:1016700080699000c4c6b3001181e90084cf510095
:10168000220032000a003c006442520084cf510024
:101690002500320004c2e80084cf5100130032005c
:1016a0006842520084cf51001e003a000a00370001
:1016b00044c7b30084cf51001b0032006642420091
:1016c00084cf5100180032006942520084cf51008b
:1016d00014003a0005003700820878009200780074
:1016e00020609000804878002c0037008208780045
:1016f0009200780010129000cfa2de00612bb9009a
:101700008498be008690be002400370082087800ce
:101710009200780010119000cf91de008288be0008
:101720001e0037001181e9008208780092007800dd
:101730001010900080087800180037001181e9002f
:101740008208780012027800cfa2de00612bb90077
:101750000498be000690be00a00890008181410060
:101760007300980081c7b300570007000b003700d3
:10177000a008900082f1780006003700a0089000d1
:10178000818141000204e00001003a0052c2b3002e
:10179000824978008100e800210898000000eb00f1
:1017a0004f05be004f04be0000000600889fbe002b
:1017b0008a1f780000047800c8009000680190003b
:1017c0000000eb00828f50003c00390018007800c8
:1017d0002200290002016000e20f510007003200e0
:1017e000012020000000e00001003500012024005d
:1017f000008c70000080eb003000370002002600f3
:1018000002006000820f500009003a00380090008a
:10181000808f5000060039000800780096fe07000f
:10182000800078000080eb000100e00023003a0017
:101830001805780000c020000000650018003a007c
:10184000a80490006002200008004000808f54002f
:1018500013003a00002020001e0207002004980018
:101860000000e00005003a002904980049049800af
:101870008904e80039049800080037000a60a000d5
:101880000a0c78004004980001202000808040006d
:1018900031049800400c9800500c98003b01070060
:1018a00028009000500498003800900060049800d0
:1018b00000002600180c70000000eb004f057800b7
:1018c0004f04be0000000600fc874700889fbe0052
:1018d0008a9fbe008c9fbe008e1f78000006780095
:1018e00080c5b30080cf50000a003200774040002e
:1018f00080cf50000a0032006940400080cf500085
:101900000b0032009089200080bf9f00ae002000b5
:101910000a0037008288200082bf9f00060037003f
:101920009389200083bf9f008e00200003003700b2
:101930009489200084bf9f000e0120003c02be005d
:101940002c03be000605be000404be0040c6b30062
:1019500080cf5000030032006540400080cf50002f
:101960000b003a00e00f5200e08f5a00e00f5b00de
:10197000e08f5b0006003d006000b8006011b80019
:1019800004045000858458000605590087855900d5
:10199000e80f57000400320040002000f00f57000d
:1019a00038003a000100370030002000e00f5400fa
:1019b000e08f5c00e00f5d00e08f5d0004003a0006
:1019c0008c1090008d0120000100e0000600320024
:1019d0008e00e900888060008fba9700e5c078002b
:1019e000f1ef9f007d012000800078008100e90078
:1019f000050033008b05d1000a85d3008984d3000c
:101a00000884d300f9ff3700089ebe000a96be0086
:101a1000120037008d06e9008e00e9008480600026
:101a20000fb99700e2c1780082fd2f000f0141003d
:101a300003f17e00800078008100e900050033009a
:101a40008783d1000683d3008582d3000482d3002c
:101a5000f9ff3700049ebe000696be003c02be00a1
:101a60002c03be00e00f5200e08f5a00e00f5b0035
:101a7000e08f5b008b0034000d00e000e5ff3c00d0
:101a8000880037000c68900081c6b300814f500079
:101a90000b00320006003c000004e00008003200a9
:101aa000e6c05000814f50004e003a00040037005d
:101ab000c1c6b300814f50004a003a0021003700f0
:101ac0000800e00004003a000c1090008d01200096
:101ad0000000e00006003200110009000e84d8006a
:101ae0000fb99700e2c07800f1ef9f007d01200060
:101af000110009000e84d8000a0037001100090007
:101b00000e04d8008d06e9000e81b90002045400cd
:101b10008fb8970061417c0081fd2f008f804000cd
:101b200082f07e00000478000800e000020032002d
:101b30000d00e000f1ff3c00cfc4de00614db900b4
:101b400025003700e00f5400e08f5c0004003a00ed
:101b50000c1090008d0120000000e0000700320012
:101b60006171b9000800be00eb0107008fb9970052
:101b7000e3417800f3ef9f007d0120006171b9001f
:101b80000800be00d40107000b0037006171b900e6
:101b90000800be00c10107008d06e90000f1b90090
:101ba000020454000fba9700e4427c0084fd2f0029
:101bb0000f02420005f27e000004be00e00f50005c
:101bc000e08f5800020032000d00e000efff3c0003
:101bd0004fcdde008a057800089ebe000a96be0042
:101be00030003700e00f5400e08f5c00e00f5d0034
:101bf000e08f5d0004003a000c1090008d01200081
:101c00000000e000090032006172b900612bb900e8
:101c10000800be000a01be00680207000fba970064
:101c200064427800f4ef9f007d0120006172b900ea
:101c3000612bb9000800be000a01be00580207006f
:101c40000d0037006172b900612bb9000800be00b9
:101c50000a01be005d0207008d06e90000f2b9002e
:101c6000040454008fba970065427c0085fd2f0064
:101c70008f82420084f27e00009ebe000296be006b
:101c80003c04be002c05be00e00f5400e08f5c0059
:101c9000e00f5d00e08f5d00020034000d00e00009
:101ca000e8ff3c00e80f570010003a003c1090009d
:101cb0000038a3000d003200f78f560006003e00ea
:101cc00085fd2f008f824200e5c07e0000c3b30077
:101cd00080cf5000050032008d06e90002c3b3003a
:101ce00081fd2f008f80400082f07e0078811600f9
:101cf000420e98007c00900083fd2f008f814100f0
:101d00008d80410001fc07004c0890008c10900071
:101d1000810f500006003d0000805000300e9800fa
:101d20003c1090000040a100301698000f003700d2
:101d30000100e0000d003d00bc109000f480600048
:101d4000f08f500009003a002c119000ac08900070
:101d5000810051003c0990008280500000805000ba
:101d60004240a90001003400300e98004f0778006f
:101d70004f06be004f05be004f04be00cf01b100ac
:101d80000000060080f6200061003700881f780000
:101d9000888c20001804e00003003a00f9ff0700d7
:101da00020c0b300004c78004f047800000006000b
:101db000889fbe0000047800080078002efd070010
:101dc0008004780000042000180060000200320047
:101dd000280090005a0007000000eb002004980043
:101de000384090000004e000050035000000fb00d2
:101df00073f907000000e000010032008084eb006e
:101e0000181090000000e00008003200b7f9070049
:101e10000000e000010032008084eb001810900008
:101e2000470007000000eb00101498000008200095
:101e300018006000150032000001eb006000b800df
:101e4000838720000202d00063027a00880f5200cc
:101e500005003a00000040008180480000804100f9
:101e60000008eb000600370061004000e0804800f9
:101e70000201e800e80f5000e08f5800f0ff3a0040
:101e8000080078002e0007000e003700000c7800d4
:101e900000c0eb00304498006002200008004000c1
:101ea000200498004004980050049800400c9800ca
:101eb00060049800500c980070049800760044006c
:101ec000000c9800090078004f04be0000000600d6
:101ed000881f78000004eb006140b800e2ff2f008b
:101ee000f3ff2f000f0107006288200062007800d6
:101ef0000000e00001003200adff07000804e80028
:101f0000e80f5400f4ff3a004f0478000000060088
:101f1000010020000100e000080032000100800004
:101f20000100e000050032008100e90001008800a6
:101f30008100d0000200800000b17800000006009f
:101f40000000e0002f003200c0017800e38f510054
:101f50002c0036000308a3002a003a003146800016
:101f60000100e00002003200810f50000400310047
:101f70001100980030468800160037008200780073
:101f8000110190000200e00002003200800f5100b9
:101f9000faff39001102780084824000850f50005a
:101fa00018003900808f520003003a008308420075
:101fb00001007800070037000200e0000300320053
:101fc00083014000830f51000e0039001200980079
:101fd00090009800900090000100e000090032009d
:101fe00010014000828f500006003a00428c200011
:101ff0000009eb00100178001108410091009000e9
:102000001100980000000600889fbe0000047800c0
:10201000214680000100e00002003200010078004b
:102020000d00370031468000608c2000040037002e
:10203000910f5400250036000180e80091009000c7
:102040000100e000faff3a0010003700920f540040
:102050001e0036000280e800100178000200e00057
:10206000faff3a001101780031468000608c2000b0
:1020700004003700910f5400140036000180e8007e
:1020800091009000828f5000faff3a00594680007c
:10209000888f54000100310088047800090078001e
:1020a000360007000000e00004003a00888f54006a
:1020b000050032008904d100f5ff370009187800c7
:1020c0009fff0700d2ff37000000eb004f04be0067
:1020d00000000600881f7800630440000800a1008b
:1020e0008000eb00800f540021003600e30f540005
:1020f00001003e004800200008007800c2ff0700f1
:102100008000eb000000e000190032009000780031
:102110009101780064815100880f51000300310063
:102120001101900002087800070037000881400084
:1021300002087800910190001301980010017800c6
:102140001109140088087800100178000000eb00e5
:102150000200e00004003200920190000300e00061
:10216000010032000280e800204688008180e800fb
:10217000010078004f04780000000600800078001d
:102180000000eb000100e0000500340001007800d1
:10219000dff80700e10f400001003a000000eb000b
:1021a0000000060000c0da000000060000c0da00ef
:1021b0000000060000c0da00000006003400f8004d
:1021c0000203be00820270008502720002f0a600c7
:1021d00000f0a6008100e800a10188001500b2000f
:1021e00008003200105978000402e9000d003200a6
:1021f00061004000fbff39003420ec0000002800a3
:10220000f8ff3700101978000482e9000500320059
:1022100062004000fbff39003420ec000000280081
:10222000f8ff37003400f9000601be000000060088
:102230000300e00007003200a5018000a101880032
:1022400010427800a50188000402fb00820f5200b2
:10225000110032008301e900a5018000a10188007e
:1022600010427800a50188000404e0000800320054
:10227000000278001000b00000026a004260af0067
:1022800000f0a0000482d2000180b000e8ff370017
:10229000000020000100200000000600839f68006d
:1022a0000100e00002003d0060001000e080180026
:1022b0000300e00002003d0060011100e081190010
:1022c000050007004f00e00002003b006000100026
:1022d000e0801800000006006022b800060220001e
:1022e0000000d0008180d2000482d2008582d2001a
:1022f0000000a0000202520083825a000300310055
:102300000202420083824a000000a1000603e900a5
:10231000f3ff3a0000000600efff07000400be00d4
:1023200000000600020ab900001bb9000200b80054
:10233000810042008100430000000600889fbe002b
:102340008a9fbe0030044200b0844a0030054b0032
:1023500090854b006000b1000898be000a90be0056
:102360000440e10005c8e10006d0e10007d8e10023
:1023700002003100680040001008e8004f05be0070
:102380004f04be0000000600889fbe008a9fbe006a
:102390003004be002005be000418540005985c00ff
:1023a00006185d0007985d00110020000440e10060
:1023b00005c8e10006d0e10007d8e10001003900be
:1023c0008000eb00108810004f05be004f04be00d7
:1023d000000006001200fa00889fbe008a9fbe001f
:1023e0008c9fbe00e0b79f00f1b79f0082bf9f00a7
:1023f00093bf9f000605be000404be000000eb0072
:10240000d0b79f00c0b79f00b0b79f00a0b79f0094
:1024100090b79f00000678005fb19700cfb097009b
:10242000820141003fb097000200e00004003d003f
:10243000370007007e805700c0ff07000300370009
:10244000330007007e805700cfff0700dfb69700fc
:102450000d00e0000c0035006fb29700ffb297004e
:102460000fbb97009fbb97001000200001002000c9
:102470006011b800000272008182720002037300d2
:10248000838373001b0007000c06e8000104200092
:10249000810f5600e0ff3a000d00e00004003d000f
:1024a0000802be000a03be007e805700a3ff07009b
:1024b0005fa897000000e00005003a001fb29700f7
:1024c000afb297003fb39700cfb397000900070062
:1024d0006fb09700ffb097000fb997009fb99700b2
:1024e0004f06be004f05be004f04be000080fa003c
:1024f000000006000100070000000600a4b79f00ce
:10250000b5b79f00c6b79f00d7b79f000000060071
:102510004f09de0082817100b3b79f004f01de00da
:102520008180400082807000a1b79f008fb097002b
:102530004f09de00000040000200700090b79f00cd
:102540007fa897004f01de008180400082807000ec
:1025500081b79f000d0007004f3ade0000004000e9
:1025600004007000f0af9f00080007000402420062
:1025700085824a0006034b0087834b00dfff07007c
:102580000802be000a03be00000006002fb297003a
:10259000bfb297004fb39700dfb39700000006006b
:1025a000881f780018002000881f780089ff070026
:1025b0008f87e9004f04780000000600801feb00c1
:1025c00084ff07008f87e90000000600889fbe0097
:1025d0008a9fbe00e00f5000e08f5800e00f5900c6
:1025e000e08f59000c003d006044b8006055b80011
:1025f0000000540081805c0002015d0083815d0069
:10260000180020001500070008003d001800070012
:102610000004eb00050037000004eb000f0007008a
:1026200002003d001200070018002000dcff070038
:102630000800e000060032006022b8006033b800f5
:102640000000520081805a0002015b0083815b0020
:102650004f05be004f04be0000000600e00f520010
:10266000e08f5a00e00f5b00e08f5b000000060087
:102670006044b8006055b8000402540085825c00d4
:1026800006035d0087835d0000000600889fbe0092
:102690008a9fbe008c1f7800e00f5000e08f58002a
:1026a000e00f5900e08f59000d003d006044b80074
:1026b0006055b8000000540081805c0002015d009c
:1026c00083815d001c0020000820e10009a8e100d2
:1026d0000ab0e1000bb8e1000d003d000800370032
:1026e0000006eb00e00f5200e08f5a00e00f5b00a5
:1026f000e08f5b0006003d006044b8006055b80004
:102700000402540085825c0006035d0087835d003f
:10271000aaff07000c00e000060032006022b800ab
:102720006033b8000000520081805a0002015b0053
:1027300083815b004f0678004f05be004f04be004a
:04274000000006008f
:020000040000fa
:1027440043680000617200002052000065630000cd
:10275400763a00002025000064000000800000009c
:10276400810000008200000083000000840000005b
:10277400850000008600000087000000880000003b
:10278400890000008a0000008b0000008c0000001b
:0c2794008d0000008e0000008f0000008f
:020000040000fa
:1027a0000a00fa00889fbe008a9fbe008c9fbe0070
:1027b0002007980031079800420798002e009000eb
:1027c000cf80de0095f7070062662600634e240086
:1027d000aaf7070070f70700008fbe00f0ff2f0078
:1027e000010020001e01be00800f5100818f5900a2
:1027f00007003c009e0078003e0090000108780031
:102800004e0090008000eb0001087800480037007f
:102810001e00be00e00f5000e08f580002003d0097
:1028200067004000e08048004d09dd004306de00ff
:102830000c067100c38ede000c8fbe00f0ff2f006f
:10284000010020001e01be00800f5100818f590041
:1028500007003c009e0078003e00900001087800d0
:102860004e00900011002000010878003000370071
:102870001e00be00e00f5000e08f580002003d0037
:1028800067004000e08048004d09dd004305de00a0
:102890000a057100c38dde000a8fbe00f0ff2f0015
:1028a000010020001e01be00800f5100818f5900e1
:1028b00007003c009e0078003e0090000108780070
:1028c0004e00900021002000010878001800370019
:1028d0001e00be00e00f5000e08f580002003d00d7
:1028e00063004000e08048004e09dd004204de0045
:1028f00008047100c28cde00088fbe00f0ff2f00bc
:10290000010020001e01be00800f5100818f590080
:1029100007003c009e0078003e009000010878000f
:102920004e009000310020000108780000000000f7
:102930004f06be004f05be004f04be000080fa00e7
:10294000000006000800fa002007980031079800f0
:102950002e009000e10f500003003200e20f500003
:102960001f0032003d00370005e1a9000021ef0003
:102970000421a9000e80e800000178008e00780094
:102980003e00900086ff07001e0090000040780087
:10299000634060000080fb00630060004400dd00d5
:1029a00022088000f1fc2f0081006100010070000e
:1029b000200888001e0078001008880005e1a800a3
:1029c0000000000020048000680060000000e000bb
:1029d000fcff32008460a90005e1a9001f00370058
:1029e00011e1a9000621ef001021a9000e80e800e6
:1029f000000178008e0078003e00900068ff07001c
:102a00001e00900000407800634060000080fb00e2
:102a1000630060004400dd0082088000f1fc2f00ac
:102a20008100610001007000800888001e007800ad
:102a30006008880011e1a800000000002104800067
:102a400000042000008060000000e000fbff320076
:102a500084c0a90011e1a900000000000080fa0074
:102a6000000006000800fa002007980031079800cf
:102a70002e009000e10f500016003a0005e1a90079
:102a80000021ef000e80e800000178008e00780041
:102a90003e00900042ff07001e00780010088800ea
:102aa0001e00900000407800634060000080fb0042
:102ab000630060004400dd0022088000f1fc2f006c
:102ac00081006100010070002008880005e1a80075
:102ad000180037002e009000e20f500015003a0059
:102ae00011e1a9000621ef000e80e8000001780046
:102af0008e0078003e00900029ff07001e0078003d
:102b0000600888001e00900000407800634060006c
:102b10000080fb00630060004400dd00820880004c
:102b2000f1fc2f0081006100010070008008880026
:102b300011e1a8000080fa00000006000200fa007f
:102b4000000f78001e007800e10f500003003200f3
:102b5000e20f5000080032000f00370000000000b4
:102b600020048000680060000000e000fcff3200ec
:102b70008460a900080037000000000021048000e4
:102b800000042000008060000000e000fbff320035
:102b900084c0a900000000000080fa0000000600c8
:020000040000fa
:102ba000aa0800001a00000002000000686a6c0019
:102bb000747a4c00000001000002000004000800cc
:102bc00000100000000020002b2d2300300000002a
:102bd0000008000088000000020000000100000062
:102be00000260800270826000826080026082600d8
:102bf00008160800000000000000000000000000af
:102c000000000000000000000000000000000000c4
:102c10000002080001014e00084f08004e084e0057
:102c2000084e08004e083e000800000000000000aa
:102c30000000000000000000000000000000000094
:102c40000000000000000200080202007608770081
:102c50000876080076087600087608006608000006
:102c60000000000000000000000000000000000064
:102c70000000000000000000000000000008280024
:102c800008500800000000000000000000000000e4
:102c90000000000088080000220000000200000080
:102ca0003031320033343500363738003941420094
:102cb000434445004600300031323300343536009d
:102cc0003738390061626300646566000000000007
:102cd000c80800000200000000000000ca08000050
:102ce000020000000200000004000000c408000010
:102cf0000400000000000000cc08000002000000fa
:102d00000200000001000000ce08000002000000e8
:082d10000000000000000000bb
:020000040000fa
:102d18003400fa00813e20001000200007ff070061
:102d28003f000700ad000700d202a800d902a800a2
:102d38001000200010079800e4004700023b29001b
:102d48000f000900b21878000000eb00000f7800af
:102d580001003700000000000e80e8006f00070047
:102d6800e10f500002003a001e007800d0108800e1
:102d78000e80e80081000700e10f500003003a00d0
:102d8800350007000000eb00000f7800c01080003d
:102d9800610060000000e000eeff32001e0fe80056
:102da800e0108000ed0f500003003200e0108000ba
:102db800ea0f500002003a00270007000900370018
:102dc8001e0078000000400000004700200090002e
:102dd8000040780046000700e010800000407800be
:102de800430007001e007800ef0f500001003a0072
:102df80019000700400220000e0040009e1f7800c6
:102e0800213a2900811f7800dff60700e487570080
:102e1800400220000e0040001f000700ceff3700d0
:102e28000000fa0022a2a8002342a9001011800085
:102e38003000b300101188001111800030fe2f00ff
:102e4800008060008001b3001011880021e2a80012
:102e58000080fa00000006000200fa000000eb0003
:102e6800000f780000c8b3002100070003003700f6
:102e780000c2b3001e0007001e0fe8001e00780005
:102e8800ef0f5000faff340000c8b3001800070025
:102e98000080fa00000006000400fa0010079800fd
:102ea8000b0037001e007800f10f500002003a00b6
:102eb80000ccb3000e0007001e0078009e009000b2
:102ec8000080400010407800090007001e0fe8004d
:102ed8001e0078009e00900000804000104078009e
:102ee8000004e000efff3a000080fa00000006004e
:102ef8000200fa00004f7800000000000011800076
:102f0800620060000000e000fcff3a001e00fb00c9
:102f1800201188000080fa00000006000600fa0070
:102f2800200798000000eb00000f7800d016800002
:102f38004800de00614060000080fb001007980038
:102f4800ae0090001e00900000806800e10f500065
:102f580007003a001e0090000000e00004003a005c
:102f68009e0090002107980010002000000f7800b4
:102f78001e0078000080fa00000006000600fa0033
:102f8800200798000000eb00000f7800a0168000d2
:102f980000407800614060000080fb001007980046
:102fa800ae0090001e00900000806800e10f500005
:102fb80007003a001e0090000000e00004003a00fc
:102fc8009e0090002107980010002000000f780054
:102fd8001e0078000080fa00000006000000fa00d9
:102fe800b0002000f010880017e2a8001942a800dd
:102ff800c1108000f0f32f00008060000060a00086
:0c300800c01088000080fa0000000600e4
:00000001FF
