:020000040000fa
:080000000001040000000000f3
:020000040000fa
:04000800c80100002b
:020000040000fa
:04000c00c801000027
:020000040000fa
:04001000c801000023
:020000040000fa
:04001400c80100001f
:020000040000fa
:04001800c80100001b
:020000040000fa
:04001c00c801000017
:020000040000fa
:04002000c801000013
:020000040000fa
:04002400c80100000f
:020000040000fa
:04002800c80100000b
:020000040000fa
:04002c00c801000007
:020000040000fa
:04003000c801000003
:020000040000fa
:04003400c8010000ff
:020000040000fa
:04003800c8010000fb
:020000040000fa
:04003c00c8010000f7
:020000040000fa
:04004000c8010000f3
:020000040000fa
:04004400c8010000ef
:020000040000fa
:04004800c8010000eb
:020000040000fa
:04004c00c8010000e7
:020000040000fa
:04005000c8010000e3
:020000040000fa
:04005400c8010000df
:020000040000fa
:04005800c8010000db
:020000040000fa
:04005c00c8010000d7
:020000040000fa
:04006000c8010000d3
:020000040000fa
:04006400c8010000cf
:020000040000fa
:04006800c8010000cb
:020000040000fa
:04006c00c8010000c7
:020000040000fa
:04007000c8010000c3
:020000040000fa
:04007400c8010000bf
:020000040000fa
:04007800c8010000bb
:020000040000fa
:04007c00c8010000b7
:020000040000fa
:04008000c8010000b3
:020000040000fa
:04008400c8010000af
:020000040000fa
:04008800c8010000ab
:020000040000fa
:04008c00c8010000a7
:020000040000fa
:04009000c8010000a3
:020000040000fa
:04009400c80100009f
:020000040000fa
:04009800c80100009b
:020000040000fa
:04009c00c801000097
:020000040000fa
:0400a000c801000093
:020000040000fa
:0400a400c80100008f
:020000040000fa
:0400a800c80100008b
:020000040000fa
:0400ac00c801000087
:020000040000fa
:0400b000c801000083
:020000040000fa
:0400b400c80100007f
:020000040000fa
:0400b800c80100007b
:020000040000fa
:0400bc00c801000077
:020000040000fa
:0400c000c801000073
:020000040000fa
:0400c400c80100006f
:020000040000fa
:0400c800c80100006b
:020000040000fa
:0400cc00c801000067
:020000040000fa
:0400d000c801000063
:020000040000fa
:0400d400c80100005f
:020000040000fa
:0400d800c80100005b
:020000040000fa
:04010800c80100002a
:020000040000fa
:04010c00c801000026
:020000040000fa
:04011000c801000022
:020000040000fa
:04011400c80100001e
:020000040000fa
:04011800c80100001a
:020000040000fa
:04011c00c801000016
:020000040000fa
:04012000c801000012
:020000040000fa
:04012400c80100000e
:020000040000fa
:04012800c80100000a
:020000040000fa
:04012c00c801000006
:020000040000fa
:04013000c801000002
:020000040000fa
:04013400c8010000fe
:020000040000fa
:04013800c8010000fa
:020000040000fa
:04013c00c8010000f6
:020000040000fa
:04014000c8010000f2
:020000040000fa
:04014400c8010000ee
:020000040000fa
:04014800c8010000ea
:020000040000fa
:04014c00c8010000e6
:020000040000fa
:04015000c8010000e2
:020000040000fa
:04015400c8010000de
:020000040000fa
:04015800c8010000da
:020000040000fa
:04015c00c8010000d6
:020000040000fa
:04016000c8010000d2
:020000040000fa
:04016400c8010000ce
:020000040000fa
:04016800c8010000ca
:020000040000fa
:04016c00c8010000c6
:020000040000fa
:04017000c8010000c2
:020000040000fa
:04017400c8010000be
:020000040000fa
:04017800c8010000ba
:020000040000fa
:04017c00c8010000b6
:020000040000fa
:04018000c8010000b2
:020000040000fa
:04018400c8010000ae
:020000040000fa
:04018800c8010000aa
:020000040000fa
:04018c00c8010000a6
:020000040000fa
:04019000c8010000a2
:020000040000fa
:04019400c80100009e
:020000040000fa
:04019800c80100009a
:020000040000fa
:04019c00c801000096
:020000040000fa
:0401a000c801000092
:020000040000fa
:0401a400c80100008e
:020000040000fa
:0401a800c80100008a
:020000040000fa
:0401ac00c801000086
:020000040000fa
:0401b000c801000082
:020000040000fa
:0401b400c80100007e
:020000040000fa
:0401b800c80100007a
:020000040000fa
:0401bc00c801000076
:020000040000fa
:0401c000c801000072
:020000040000fa
:0401c400c80100006e
:020000040000fa
:0401c800c80100006a
:020000040000fa
:0401cc00c801000066
:020000040000fa
:0401d000c801000062
:020000040000fa
:0401d400c80100005e
:020000040000fa
:0401d800c80100005a
:020000040000fa
:100200000f8020000eff20000e018800000000007b
:10021000000020000000e000020032000001200089
:1002200020028800140007005b0007000000e000c7
:1002300003003a0000002000010020000200370007
:100240000000200001002000810f7000010032003a
:1002500014000700000020000000e000020032004f
:100260000000020000000000b005020000000000d5
:100270000040da000000fe004440a900e000200039
:100280000000e0000300320000002000a001880010
:100290004440a800000006008a1f78008b1f7800e9
:1002a0000000060091018800800478000000eb0047
:1002b0001a003700e284440032a0b4009905ba0065
:1002c000e284440032a0b4009906ba00e2844400fb
:1002d00032a0b4000006eb00476fde00fd07b2005d
:1002e000636ce10003003a00ebff07000000eb0045
:1002f0000a003700606ce10004003a00005deb008a
:100300008b05e900fdff3e00040037006168e10055
:10031000010032000086eb000b00070019c7ba008d
:100320001905ba000e04e00003003a000a00e000dc
:10033000e0ff3a0000000600fe07b2009e018800c0
:100340008a047800f5ff3700395dba008b05e900b3
:100350000c003200295dba008b05e900080032006c
:100360000c00e00003003a00e284440032a0b40034
:10037000f5ff370019ddba008b05e900faff3a00f6
:100380008904e800e184440032a0b40000000600c3
:100390000040da000000fe00000005000001be0081
:1003a000220007000470a70003f0a1006509b10056
:1003b000160032000d0035006828e1000600350007
:1003c000f0ff2f00f1ff27000300e00013003b00c7
:1003d0000100280000000500000040008180480066
:1003e0008502e900fcff3a0008003700f88f420060
:1003f00002003c008000eb00000005008100d100fd
:100400000080d3008502e800fcff3a000300e00012
:1004100002003b0060001000e080180000000600b1
:100420004f89de008201780049003700c70ade00ec
:10043000f107b200f50fb20008003200e1cf420030
:10044000020032000170a00024000500810f70003e
:10045000010032000408050044000500810f70000f
:1004600002003a00140005008502e9000000400087
:1004700081c04800fcff3b000170a0002400050083
:10048000889fbe008a9fbe008c1f780095000700e1
:100490009c00330003866c006450e10024003200ad
:1004a0006420e100270032006150e10022003200a8
:1004b0006120e100210032008b854200eb07b10092
:1004c0000134b800003ab8000804420089844a00a8
:1004d000013ab8000030b8008880400009014a00a5
:1004e0000400330000004000818048000201490000
:1004f0008b05e900c909dd008301700001003200ad
:1005000013002000c814de004814dd004709de0097
:100510001200b200c808de00088470004b0007001b
:1005200001f0a1000cf0a70001f0a0007e00370050
:100530006120e100800032000801be000200be0020
:10054000f7ff37006150e100fcff3a007a00370006
:10055000881f7800030478000300e00007003d00d6
:1005600060001000e080180060011900e0811900af
:1005700002003b0001f02d000300370004000700db
:1005800008f0a70001f0a0004f047800000006006a
:10059000889fbe008a9fbe00008270000402710026
:1005a00004827100260032000004be000200be007a
:1005b0006011b8006b092000950220000182cf0075
:1005c0000a0039000541b1000082cf000700390060
:1005d0000541b1000982cf00040039000541b10096
:1005e0000882cf00010039000541b10005425200e8
:1005f000120032000a003b00828171006101640038
:100600008100d1000080d3008984d3000884d30006
:100610008b05e8000442e800f7ff3a0007003700c6
:100620000804440089844c00000048008180480090
:100630008b05e9000442e900f9ff3a0003000700d6
:100640004f05be004f04be000000060081002000e0
:10065000618055000b003d000b00200061fe2f0063
:100660000100e1001d00340082817100610164001d
:100670008904d1000884d3000000e800faff3a00a2
:10068000710020006100640003007000020060003f
:100690000900320061044400e0844c000988a50090
:1006a000050032008b05e8006808e10002003a000e
:1006b0008904d1000884d300f20f20000258e10021
:1006c00005003d00c75ddd00f907b20089807500b7
:1006d00008007800000006000bf827008b00780067
:1006e000000005000004be0050ff07000003be002c
:1006f0000405be000200be004cff0700844f7500d9
:10070000000006000200be006450e1000500360053
:100710006420e100020036000968a30001003a00ed
:100720000800be000160a0004f0678004f05be0023
:100730004f04be0000000600f0ff2f00f1ff27006d
:04074000f9ff370086
:020000040000fa
:10074400486500006c6c00006f200000576f0000cb
:0c075400726c0000642100000000000036
:020000040000fa
:100760000a00fa00889fbe008a9fbe008c9fbe00d0
:100770002007980031079800420798002e0090004b
:10078000cf80de0026ff070062662600634e24004d
:100790003bff070001ff0700008fbe00f0ff2f00a6
:1007a000010020001e01be00800f5100818f590002
:1007b00007003c009e0078003e0090000108780091
:1007c0004e0090008000eb000108780048003700e0
:1007d0001e00be00e00f5000e08f580002003d00f8
:1007e00067004000e08048004d09dd004306de0060
:1007f0000c067100c38ede000c8fbe00f0ff2f00d0
:10080000010020001e01be00800f5100818f5900a1
:1008100007003c009e0078003e0090000108780030
:100820004e009000110020000108780030003700d1
:100830001e00be00e00f5000e08f580002003d0097
:1008400067004000e08048004d09dd004305de0000
:100850000a057100c38dde000a8fbe00f0ff2f0075
:10086000010020001e01be00800f5100818f590041
:1008700007003c009e0078003e00900001087800d0
:100880004e00900021002000010878001800370079
:100890001e00be00e00f5000e08f580002003d0037
:1008a00063004000e08048004e09dd004204de00a5
:1008b00008047100c28cde00088fbe00f0ff2f001c
:1008c000010020001e01be00800f5100818f5900e1
:1008d00007003c009e0078003e0090000108780070
:1008e0004e00900031002000010878000000000058
:1008f0004f06be004f05be004f04be000080fa0048
:10090000000006000800fa00200798003107980050
:100910002e009000e10f500003003200e20f500063
:100920001f0032003d00370005e1a9000021ef0063
:100930000421a9000e80e800000178008e007800f4
:100940003e00900086ff07001e00900000407800e7
:10095000634060000080fb00630060004400dd0035
:1009600022088000f1fc2f0081006100010070006e
:10097000200888001e0078001008880005e1a80003
:100980000000000020048000680060000000e0001b
:10099000fcff32008460a90005e1a9001f003700b8
:1009a00011e1a9000621ef001021a9000e80e80046
:1009b000000178008e0078003e00900068ff07007c
:1009c0001e00900000407800634060000080fb0043
:1009d000630060004400dd0082088000f1fc2f000d
:1009e0008100610001007000800888001e0078000e
:1009f0006008880011e1a8000000000021048000c8
:100a000000042000008060000000e000fbff3200d6
:100a100084c0a90011e1a900000000000080fa00d4
:100a2000000006000800fa0020079800310798002f
:100a30002e009000e10f500016003a0005e1a900d9
:100a40000021ef000e80e800000178008e007800a1
:100a50003e00900042ff07001e007800100888004a
:100a60001e00900000407800634060000080fb00a2
:100a7000630060004400dd0022088000f1fc2f00cc
:100a800081006100010070002008880005e1a800d5
:100a9000180037002e009000e20f500015003a00b9
:100aa00011e1a9000621ef000e80e80000017800a6
:100ab0008e0078003e00900029ff07001e0078009d
:100ac000600888001e0090000040780063406000cd
:100ad0000080fb00630060004400dd0082088000ad
:100ae000f1fc2f0081006100010070008008880087
:100af00011e1a8000080fa00000006000200fa00e0
:100b0000000f78001e007800e10f50000300320053
:100b1000e20f5000080032000f0037000000000014
:100b200020048000680060000000e000fcff32004c
:100b30008460a90008003700000000002104800044
:100b400000042000008060000000e000fbff320095
:100b500084c0a900000000000080fa000000060028
:100b60001000fa0022a2a8002342a9001011800060
:100b70003000b300101188001111800030fe2f00ea
:100b8000008060008001b3001011880021e2a800fd
:100b9000813e200010002000a2ff0700813e2000bf
:100ba0001000200057ff0700203a2800e20047000d
:100bb0000c000900b0587800d000b1000000eb0034
:100bc000000f7800160037001e007800f10f50006b
:100bd00008003a0000000000001180006200600080
:100be0000000e000fcff3a00000c2000201188000b
:100bf000010037000000000000118000620060006a
:100c00000000e000fcff3a000e80e8001e004000fb
:100c1000104078000000fb00201188001e0fe80043
:100c20001e007800eb0f5000e7ff36000000eb00dd
:080c30000080fa00000006003c
:00000001FF
